:020000040800F2
:100000000050002079010008BD010008BD01000872
:10001000BD010008BD010008BD010008000000008E
:10002000000000000000000000000000BD0100080A
:10003000BD01000800000000BD010008BD0100086E
:10004000BD010008BD010008BD010008BD01000898
:10005000BD010008BD010008BD010008BD01000888
:10006000BD010008BD010008BD010008BD01000878
:10007000BD010008BD010008BD010008BD01000868
:10008000BD010008BD010008BD010008BD01000858
:10009000BD010008BD010008BD010008BD01000848
:1000A000BD010008BD010008BD010008BD01000838
:1000B000BD010008BD010008BD010008BD01000828
:1000C000BD010008BD010008BD010008BD01000818
:1000D000BD010008BD010008BD010008BD01000808
:1000E000BD010008BD010008BD01000800000000BE
:1000F0000000000000000000000000000000000000
:1001000000000000000000005FF808F110B5054C89
:10011000237833B9044B13B10448AFF300800123B3
:10012000237010BD5404002000000000C805000822
:100130000C4B43B10C4810B50C49AFF300800C4890
:10014000036823B910BD0A48036833B97047094BE7
:10015000002BF7D0BDE810401847064B002BF5D018
:10016000184700BF00000000C80500085804002020
:100170005004002000000000002103E00A4B5B58FF
:100180004350043109480A4B42189A42F6D3094AAF
:1001900002E0002342F8043B074B9A42F9D300F0F7
:1001A0000FF800F05DF97047C80500080000002056
:1001B000540400205404002094040020FEE70000B2
:1001C00080B500AF154A154B1B6843F0010313605F
:1001D0001249124B5A68124B13404B600F4A0F4B97
:1001E0001B6823F0847323F4803313600B4A0B4B9A
:1001F0001B6823F480231360084A084B5B6823F4D0
:10020000FE035360054B4FF41F029A6000F078F82C
:10021000044B4FF000629A6000BF80BD00100240A6
:100220000000FFF800ED00E080B485B000AF0023CF
:10023000FB600023BB6000237B602C4B5B6803F0FA
:100240000C03FB60FB68042B07D0082B09D0002BA4
:1002500033D1274B274A1A6033E0254B254A1A60D1
:100260002FE0224B5B6803F47013BB601F4B5B688D
:1002700003F480337B60BB689B0C0233BB607B68FC
:10028000002B06D1BB681C4A02FB03F3184A13601B
:1002900017E0164B5B6803F40033002B06D0BB68F5
:1002A000154A02FB03F3124A13600AE0BB68114AC5
:1002B00002FB03F30E4A136003E00D4B0D4A1A6074
:1002C00000BF0A4B5B681B0903F00F030B4AD35CAA
:1002D000DBB2FB60064B1A68FB6822FA03F3044AA0
:1002E000136000BF1437BD4680BC70470010024049
:1002F0000000002000127A0000093D0004000020E8
:1003000080B500AF00F002F800BF80BD80B483B0BC
:1003100000AF00237B6000233B603A4A394B1B68E7
:1003200043F480331360374B1B6803F400333B60A6
:100330007B6801337B603B68002B03D17B68B3F59E
:10034000A06FF0D12F4B1B6803F40033002B02D0B9
:1003500001233B6001E000233B603B68012B4BD154
:10036000294A294B1B6843F010031360264A264B89
:100370001B6823F003031360234A234B1B6843F0DD
:10038000020313601F4A1F4B5B6853601D4A1D4BDD
:100390005B6853601B4A1B4B5B6843F4806353608C
:1003A000184A184B5B6823F47C135360154A154BAD
:1003B0005B6843F4E8135360124A124B1B6843F026
:1003C0008073136000BF0F4B1B6803F00073002B9A
:1003D000F9D00C4A0B4B5B6823F003035360094AC6
:1003E000084B5B6843F00203536000BF054B5B683A
:1003F00003F00C03082BF9D100BF0C37BD4680BCBD
:10040000704700BF001002400020024080B485B059
:1004100000AF78600023FB6002E0FB680133FB6003
:100420007B684FF4FA6202FB03F2FB689A42F4DC49
:1004300000BF1437BD4680BC704780B400AF064B88
:1004400010229A61054A054B5B6843F440135360E0
:1004500000BFBD4680BC7047001002400010014044
:1004600080B500AFFFF7E9FF074B0022DA604FF4D9
:100470007A70FFF7CBFF044B4FF6FF72DA604FF450
:100480007A70FFF7C3FFEFE700100140024B13B192
:10049000024800F005B8704700000000AD040008F5
:1004A000002301461A46184600F01EB838B50A4C1B
:1004B0000A4D641BA4100AD004F18043013B05EBF4
:1004C0008305013C55F804399847002CF9D1BDE863
:1004D000384000F071B800BF500400204C040020E8
:1004E000704700BF704700BF2DE9F8432C4D06460A
:1004F000286898460F469146FFF7F2FF294B1C6883
:10050000D4F84831002B3ED05A681F2A1CDC02F177
:10051000010E76B1012103EB8204C4F88890D3F870
:10052000880191400843022EC3F88801C4F808816D
:1005300023D00232C3F804E0286843F82270FFF7A2
:10054000D1FF0020BDE8F883174B0BB34FF4C87000
:10055000AFF300800346D8B10020D4F848114FF023
:10056000010E586019600246C4F84831C3F888018A
:10057000C3F88C01002EDCD0CCE7D3F88C0101430A
:10058000C3F88C11D5E704F5A673C4F84831BBE76E
:100590002868FFF7A7FF4FF0FF30BDE8F88300BFE2
:1005A00040040020C405000800000000F8B500BFAA
:1005B000F8BC08BC9E467047F8B500BFF8BC08BC44
:0805C0009E4670471800002060
:1005C80000A24A0400000000000000000102030429
:1005D80006070809000000000000000004030020CE
:1005E8006C030020D403002000000000000000007D
:1005F80000000000000000000000000000000000F3
:1006080000000000000000000000000000000000E2
:1006180000000000000000000000000000000000D2
:1006280000000000000000000000000000000000C2
:1006380000000000000000000000000000000000B2
:1006480000000000000000000000000000000000A2
:100658000000000000000000000000000000000092
:100668000000000000000000000000000000000082
:100678000000000000000000000000000000000072
:1006880001000000000000000E33CDAB34126DE60F
:10069800ECDE05000B000000000000000000000078
:1006A8000000000000000000000000000000000042
:1006B8000000000000000000000000000000000032
:1006C8000000000000000000000000000000000022
:1006D8000000000000000000000000000000000012
:100A0800700400208D040008310100080D01000861
:040A180000000000DA
:0400000508000000EF
:00000001FF
