:020000040800F2
:1000000000500020FD0200084103000841030008E1
:1000100041030008410300084103000800000000FC
:100020000000000000000000000000004103000884
:1000300041030008000000004103000841030008DC
:100040004103000841030008410300084103000880
:100050004103000841030008410300084103000870
:100060004103000841030008410300084103000860
:100070004103000841030008410300084103000850
:100080004103000841030008410300084103000840
:100090004103000841030008410300084103000830
:1000A0004103000841030008410300084103000820
:1000B0004103000841030008410300084103000810
:1000C0004103000841030008410300084103000800
:1000D00041030008410300084103000841030008F0
:1000E000410300084103000841030008000000002C
:1000F0000000000000000000000000000000000000
:1001000000000000000000005FF808F110B5064C88
:100110002378002B07D1054B002B02D00448AFF306
:1001200000800123237010BD3C040020000000006B
:1001300050070008084B10B5002B03D007490848AA
:10014000AFF3008007480368002B00D110BD064BB9
:10015000002BFBD09847F9E7000000004004002086
:1001600050070008380400200000000080B500AFF0
:10017000154B154A126801210A431A60124B124AA4
:10018000526812490A405A600F4B0F4A12681049D0
:100190000A401A600C4B0C4A12680E490A401A6059
:1001A000094B094A52680C490A405A60064B9F2283
:1001B00012049A6000F014F8084B802212059A602D
:1001C000C046BD4680BDC046001002400000FFF89A
:1001D000FFFFF6FEFFFFFBFFFFFF80FF00ED00E0EB
:1001E00080B500AF00F004F8C046BD4680BD0000F9
:1001F00080B582B000AF00237B6000233B603C4BA6
:100200003B4A1268802149020A431A60384B1A6837
:1002100080239B0213403B607B6801337B603B681B
:10022000002B04D17A68A023DB009A42EED1304B38
:100230001A6880239B02134002D001233B6001E037
:1002400000233B603B68012B4ED12A4B294A1268A0
:1002500010210A431A60274B264A126803218A4359
:100260001A60244B234A126802210A431A60204B69
:100270001F4A52685A601E4B1D4A52685A601C4BF6
:100280001B4A52688021C9000A435A60184B184A19
:10029000526819490A405A60154B154A5268E821BC
:1002A00049030A435A60124B114A126880214904DB
:1002B0000A431A60C0460E4B1A6880239B04134001
:1002C000F9D00B4B0A4A526803218A435A60084B03
:1002D000074A526802210A435A60C046044B5B68D1
:1002E0000C221340082BF9D1C046BD4602B080BD98
:1002F0000010024000200240FFFFC0FF002103E089
:100300000A4B5B584350043109480A4B42189A4241
:10031000F6D3094A02E0002342F8043B074B9A4215
:10032000F9D3FFF723FF00F019F9704750070008D1
:10033000000000203C0400203C0400208004002039
:10034000FEE780B588B000AF786039600023FB61BC
:1003500000233B610023BB610023FB6000237B6122
:100360000023BB603B68DB781A000F231340FB615E
:100370003B68DB781A001023134005D03B689B785C
:100380001A00FB691343FB613B681B881A00FF23BB
:10039000134044D07B681B687B610023BB6138E05D
:1003A0000122BB699A401300FB603B681B881A005E
:1003B000FB6813403B613A69FB689A4226D1BB69EE
:1003C0009B00FB600F22FB689A401300BB60BB6878
:1003D000DA437B6913407B61FA69FB689A4013003A
:1003E0007A6913437B613B68DB78282B05D10122B6
:1003F000BB699A407B685A6108E03B68DB78482B10
:1004000004D10122BB699A407B681A61BB69013340
:10041000BB61BB69072BC3D97B687A691A603B68EB
:100420001B88FF2B46D97B685B687B610023BB611F
:100430003AE0BB69083301229A401300FB603B6835
:100440001B881A00FB6813403B613A69FB689A42BB
:1004500027D1BB699B00FB600F22FB689A40130009
:10046000BB60BB68DA437B6913407B61FA69FB6858
:100470009A4013007A6913437B613B68DB78282B31
:1004800005D1BB69083301229A407B685A613B68F9
:10049000DB78482B05D1BB69083301229A407B6881
:1004A0001A61BB690133BB61BB69072BC1D97B688A
:1004B0007A695A60C046BD4608B080BD80B582B03A
:1004C00000AF786008001100BB1C021C1A807B1C66
:1004D0000A1C1A707B1C1B78002B04D0BB1C1A88CA
:1004E0007B681A6103E0BB1C1A887B685A61C046AE
:1004F000BD4602B080BD80B584B000AF78600023F7
:10050000FB6002E0FB680133FB607B68FA22D200EB
:100510005A43FB689A42F5DCC046BD4604B080BD34
:1005200080B500AF0121102000F038F8094B0322FC
:100530009A70084B1022DA70064B012252421A8040
:10054000044B054A19001000FFF7FBFEC046BD46EC
:1005500080BDC046580400200010014080B500AFA7
:10056000FFF7DEFF80239B010B4801221900FFF7F4
:10057000A5FFFA239B001800FFF7BDFF80239B0116
:10058000054800221900FFF799FFFA239B00180085
:10059000FFF7B1FFE6E7C0460010014080B582B02A
:1005A00000AF78600A00FB1C1A70FB1C1B78002B44
:1005B00006D0094B084A91697A680A439A6106E0B5
:1005C000054B054A92697968C9430A409A61C04659
:1005D000BD4602B080BDC04600100240034B10B5BE
:1005E000002B02D0024800F005F810BD000000000A
:1005F0000506000810B5010000230022002000F0CD
:100600001FF810BD70B5094B094CE41AA41009D0AD
:10061000084AA518AD00ED182B68013C9847043D29
:10062000002CF9D100F08CF870BDC04634040020D5
:1006300038040020FFFFFF3F7047C0467047C046A8
:10064000F0B54E464546DE465746E0B5364D83B0DA
:100650000600286898460F009146FFF7EDFF334BE0
:100660001C68A4235B00E058002852D043681F2B6D
:1006700013DC5A1C0192002E28D1019A02339B00F0
:1006800042601F502868FFF7D9FF002003B03CBC30
:1006900090469946A246AB46F0BD254B002B3DD077
:1006A000C8204000AFF30080002837D0A4220023E8
:1006B0005200A15843600160A05040328350043280
:1006C0008350013301930023002ED6D09A00924626
:1006D00082444A46882154466250C42252009146C0
:1006E00081444A468739994012688B460A439446AA
:1006F0004A4661461160842241465200A150022EB2
:10070000BBD102005C468D32FF3211680C4314608D
:10071000B3E720004D30FF30E050A7E72868FFF72F
:100720008DFF01204042B1E7280400204C0700085B
:1007300000000000F8B5C046F8BC08BC9E467047F3
:10074000F8B5C046F8BC08BC9E46704700000020C3
:1007500000000000EC02002054030020BC03002035
:100760000000000000000000000000000000000089
:100770000000000000000000000000000000000079
:100780000000000000000000000000000000000069
:100790000000000000000000000000000000000059
:1007A0000000000000000000000000000000000049
:1007B0000000000000000000000000000000000039
:1007C0000000000000000000000000000000000029
:1007D0000000000000000000000000000000000019
:1007E0000000000000000000000000000000000009
:1007F00000000000000000000100000000000000F8
:100800000E33CDAB34126DE6ECDE05000B000000BC
:1008100000000000000000000000000000000000D8
:1008200000000000000000000000000000000000C8
:1008300000000000000000000000000000000000B8
:1008400000000000000000000000000000000000A8
:100B700000000000000000005C040020DD0500080B
:0C0B8000350100080D0100080000000015
:0400000508000000EF
:00000001FF
